:020000040800F2
:10000000FCFF002079170000711700007117000035
:1000100071170000711700007117000071170000C0
:1000200071170000711700007117000071170000B0
:1000300071170000711700007117000071170000A0
:100040007117000071170000711700007117000090
:100050007117000071170000711700007117000080
:100060007117000071170000711700007117000070
:100070007117000071170000711700007117000060
:100080007117000071170000711700007117000050
:100090007117000071170000711700007117000040
:1000A0007117000071170000711700007117000030
:1000B0007117000071170000711700007117000020
:1000C0007117000071170000711700007117000010
:1000D0007117000071170000711700007117000000
:1000E00071170000711700007117000071170000F0
:1000F00071170000711700007117000071170000E0
:1001000071170000711700007117000071170000CF
:1001100071170000711700007117000071170000BF
:1001200071170000711700007117000071170000AF
:10013000711700007117000071170000711700009F
:10014000711700007117000071170000711700008F
:1001500001480068704700BFC400002082B0CDF89D
:1001600000E0034619460191FFF7F2FF40F2E83143
:1001700000FB01F201990A601F490978C1F30311DC
:10018000C8B21E4909180878C0B21A1D1968C140C2
:10019000116019490988C1F3022188B21749091869
:1001A0000878C0B203F20802191D0968C140116045
:1001B00011490988C1F3C22188B210490918087889
:1001C000C0B203F20C02191D0968C14011600A494E
:1001D0000988C1F3813188B2094909180978C8B280
:1001E00003F2100203F20C010968B1FBF0F1116097
:1001F000DDF800E002B0704704100240A81B0000C8
:10020000C81B000081B0194900EA0101084600221C
:100210000EE0042022E0082020E010201EE0202034
:100220001CE040201AE0802018E040F2001015E0A9
:100230000F498842EDD00F498842ECD00E498842E0
:10024000EBD00E498842EAD00D498842E9D00D49E9
:100250008842E8D00C498842E7D010460B4909682B
:1002600041EA000209490A6001B0704700FCFFFF43
:1002700000080140000C0140001001400014014042
:1002800000180140001C01400020014018100240ED
:1002900083B0CDF800E000F0FF031A09104603F028
:1002A0000F02134614E0194A02921FE0184A029204
:1002B0001CE0184A029219E0174A029216E0174A07
:1002C000029213E0164A029210E0164A02920DE0E2
:1002D0000028E8D00128E9D00228EAD00328EBD092
:1002E0000428ECD00528EDD00628EED0012212B269
:1002F0009A40ADF8042002980A46BDF8041000F0B8
:100300002BFADDF800E003B0704700BF00080140A1
:10031000000C014000100140001401400018014091
:10032000001C01400020014081B0CDF800E081B206
:10033000034800F0EFF9DDF800E001B0704700BFBE
:100340000038004081B0CDF800E081B2034800F0F1
:10035000E1F9DDF800E001B0704700BF003C00406B
:1003600081B0CDF800E0012252B23E490A6000F2AD
:1003700068010B686FF0006103EA0102144603F0A4
:100380000061C90E0B4602F00041B1F1004F02D1ED
:1003900035490A6801E035490A6804F47021090CFE
:1003A0000E464FF6FF7104EA01010D4604F44011B8
:1003B000B1F5401F0DD16FF0706102EA01010E46E8
:1003C0002A490A686FF070610A4028490A6032467B
:1003D00016E004F48011B1F5801F09D14FF003013C
:1003E000B140C94302EA010141F070610A4607E0E9
:1003F000610D090105FA01F1C9430A4042F070623A
:100400002BB1610D090105FA01F10A43FFE704F080
:100410000041B1F1004F02D113490A6001E01349D4
:100420000A6040F2000A81464FEA8A0109EB0101A5
:100430000968B1F1FF3F10D009F134014FEA8A0396
:10044000C91809680A4609EB0301096808461146FC
:10045000FFF71EFF0AF1010AE6E7DDF800E001B050
:10046000704700BF000342421C00014004000140ED
:1004700081B000230360CB009BB242EA030304680F
:100480009BB244EA03030360051D13141C462B684A
:1004900064F382032B6000F21C0500242B6864F3D4
:1004A000CB232B600124036864F38613036001B03F
:1004B0007047FFFF81B0CDF800E081B2034800F043
:1004C00029F9DDF800E001B0704700BF00300140BD
:1004D00089B0CDF800E0834698B28C46BDF8241070
:1004E0000A9E04ACADF80410ADF808002046FFF7F2
:1004F00035FEBDF80800BDF80410644CA34512D1C8
:1005000001256DB2624C2560624D634C2560634DE0
:10051000634C2560634D644C2560644D644C2560DC
:10052000079C039456E0634CA34512D101256DB29C
:10053000614C2560614D584C2560614D584C2560DB
:10054000604D594C2560604D594C2560069C0394C4
:1005500040E05E4CA34512D101256DB25C4C256094
:100560005C4D4D4C25605C4D4D4C25605B4D4E4CBB
:1005700025605B4D4E4C2560069C03942AE0594C47
:10058000A34512D101256DB2574C2560574D424C01
:100590002560574D424C2560564D434C2560564DC5
:1005A000434C2560069C039414E0544CA34511D1A0
:1005B00001256DB2524C2560524D374C2560524D8D
:1005C000374C2560514D384C2560514D384C2560D5
:1005D000069C0394ADF80410ADF808003046FFF710
:1005E000BFFEBDF80800BDF804100BF11005002493
:1005F0002C600BF110052C680C432C600BF10C05E2
:1006000000242C6018B140F4806080B2FFE70BF149
:100610000C052C6804432C600BF10C060125346892
:1006200065F34D3434600BF10C060125346865F335
:10063000C30434600BF10C060125346865F38204B1
:1006400034600BF1140500242C60039D19246543CC
:100650004FEA8C04B5FBF4F76424B7FBF4F42601ED
:10066000350964246C433C1B240104F232056424E4
:10067000B5FBF4F404F00F0446EA04040BF108059A
:10068000A4B22C60DDF800E009B0704700380140EA
:10069000380342429D090000D0000020FFFFFFFF09
:1006A000D4000020FFFFFFFFD8000020FFFFFFFF66
:1006B000DC00002000440040C4034242B9090000AD
:1006C000FFFFFFFFFFFFFFFFFFFFFFFF00480040AE
:1006D000C8034242BD0A0000FFFFFFFFFFFFFFFF0C
:1006E000FFFFFFFF004C0040CC034242D90A00004C
:1006F000FFFFFFFFFFFFFFFFFFFFFFFF0050004076
:10070000D0034242A10A0000FFFFFFFFFFFFFFFFEF
:10071000FFFFFFFF81B000F20C02116000F208023F
:100720001368C3F3000202B9F8E700F20C02126882
:1007300090B201B07047FFFF81B0ADF800100146E4
:10074000BDF800000B68C3F3C01202B9FAE70A1D36
:10075000106001B07047FFFF81B0CDF800E08CB2AF
:100760001546774B00EA03031E461846FFF74AFD7D
:10077000B4F1FF0F0CD1734B9D4203D14FF03333D3
:100780003360D9E0422D03D14FF044333360D3E0DE
:100790004FF6FF739C4214D16A4B9D4207D14FF034
:1007A00033333360341D4FF033332360C4E0422DC4
:1007B00007D14FF044333360341D4FF0443323608E
:1007C000BAE00021002005F001030BB100211DE07B
:1007D00005F0020333B105F4C0730BB1082100E04A
:1007E000042113E005F0040333B105F020030BB13D
:1007F000042100E0002109E005F0080333B105F011
:1008000020030BB10C2100E00821FFE74E4B05EA65
:1008100003030BB1032009E005F400730BB10220C0
:1008200004E005F480630BB10120FFE705F00C0341
:100830000BB10143FFE704F0FF039BB2002B3BD059
:10084000376800201FFA84F832462E4608282CD23A
:100850004FF0010303FA00F408EA0403A34222D193
:1008600085004FF00F03AB40DB4307EA030401FAB6
:1008700005F344EA03031D4606F48173B3F5817F53
:1008800005D102F214044FF001038340236006F007
:100890008203822B05D102F210044FF00103834042
:1008A00023602F46FFE7401CD0E717601FFA88F04F
:1008B0000F463146164602E00F462946A0B2B0F177
:1008C000FF0F39D9331DD3F800800022082A30D217
:1008D00002F208044FF0010303FA04F400EA0403EF
:1008E000A34224D195004FF00F03AB40DB4308EA4D
:1008F000030807FA05F348EA030801F48173B3F526
:10090000817F07D106F2140502F208044FF00103BB
:10091000A3402B6001F08203822B07D106F2100561
:1009200002F208044FF00103A3402B60FFE7521CC2
:10093000CCE7331DC3F80080DDF800E001B070475C
:1009400000FCFFFF140008000008080081B0CDF88B
:1009500000E0019D2C4610B408B493B28AB201465F
:100960000348FFF7B5FD02B0DDF800E001B07047C5
:100970000044004081B0CDF800E0019D2C4610B449
:1009800008B493B28AB201460348FFF7A1FD02B052
:10099000DDF800E001B070470038014081B0CDF8CB
:1009A00000E081B20348FFF7C7FEDDF800E001B0C8
:1009B000704700BF0038014081B0CDF800E081B23F
:1009C0000348FFF7B9FEDDF800E001B0704700BF53
:1009D0000044004081B0CDF800E081B20348FFF749
:1009E00099FEDDF800E001B0704700BF003C004018
:1009F00081B0CDF800E081B20348FFF78BFEDDF84F
:100A000000E001B0704700BF0030014081B0CDF878
:100A100000E081B20348FFF77DFEDDF800E001B0A1
:100A2000704700BF0038004083B0CDF800E08AB2C4
:100A3000014690B283B2421E90B26BB10A78D4B232
:100A4000ADF804000291A0B2054C2468A0470299B9
:100A5000BDF80400491CEDE7DDF800E003B0704785
:100A6000E800002083B0CDF800E0ADF80810019058
:100A7000BDF80830BDF80820521EADF808204BB173
:100A80000020064C2468A047019A1070019A521C5D
:100A90000192EDE7DDF800E003B07047EC000020C4
:100AA00081B0CDF800E081B20348FFF745FEDDF8E4
:100AB00000E001B0704700BF0050004081B0CDF8A9
:100AC00000E081B20348FFF737FEDDF800E001B037
:100AD000704700BF0048004081B0CDF800E081B20F
:100AE0000348FFF729FEDDF800E001B0704700BFC2
:100AF000004C004081B0CDF800E0019D2C4610B4C0
:100B000008B493B28AB201460348FFF7E1FC02B091
:100B1000DDF800E001B070470048004081B0CDF83A
:100B200000E0044A89B2FFF717FEDDF800E001B0EB
:100B3000704700BF1400080083B0CDF800E08DF8C6
:100B4000040002910B4C0C4B1C600C4C0C4B1C60B9
:100B5000012464B20B4B1C601046FFF701FC029AA3
:100B60009DF804100848FFF783FCDDF800E003B0AF
:100B7000704700BF45030000C8000020D5090000F1
:100B8000CC000020BC034242003C004081B0CDF8C4
:100B900000E04FF0420289B2FFF7DEFDDDF800E031
:100BA00001B0704701480068704700BF3001224221
:100BB00001480068704700BF2801224282B0CDF88A
:100BC00000E001AA40F0040111700020114C2468DB
:100BD000A04701A908460121FFF726FF0DF10501F5
:100BE00008460221FFF73EFF01200A4C2468A04777
:100BF0000DF10503197801F00F01C9B2C8B2020264
:100C000092B2591C097842EA010188B2DDF800E08D
:100C100002B07047E400002001480068704700BF40
:100C20002C01224201480068704700BF30812242F7
:100C300001480068704700BF1C81214281B0CDF897
:100C400000E00178CCB2A0B2034C2468A047002099
:100C5000DDF800E001B07047C000002000F2300174
:100C60001C310A6803490A6000F208010A68024957
:100C70000A607047E0000020E4000020014800689E
:100C8000704700BF1881214201480068704700BFCB
:100C90003081224201480068704700BF188122421B
:100CA00001480068704700BF148122420148006873
:100CB000704700BF2881224201480068704700BF8A
:100CC0000001214201480068704700BF3001224204
:100CD00001480068704700BF248122420148006833
:100CE000704700BF1C81214201480068704700BF67
:100CF0001881214201480068704700BF20812242CC
:100D000001480068704700BF2C012242014800687A
:100D1000704700BF1401214201480068704700BFBE
:100D20000C01224201480068704700BF388122420E
:100D300001480068704700BF100121420148006867
:100D4000704700BF2801224201480068704700BF79
:100D50003481224201480068704700BF08012242E6
:100D6000026803490A60011D0A6802490A60704767
:100D7000E8000020EC00002001490860704700BF37
:100D8000A801224201490860704700BFAC0122421D
:100D900001490860704700BF88012242014908608C
:100DA000704700BFB481224201490860704700BF0C
:100DB000A881224201490860704700BFA4812242F5
:100DC00001490860704700BFB00122420149086034
:100DD000704700BF8001214201490860704700BF91
:100DE0009001214281B0CDF800E0011D0A68016840
:100DF000C8B21146034AFFF79FFE0020DDF800E06D
:100E000001B07047701A000081B0CDF800E0011DFC
:100E10000A680168C8B21146034AFFF78DFE002038
:100E2000DDF800E001B07047701A000081B0CDF825
:100E300000E0A9E0012905D140F210016548FFF763
:100E4000A5FE04E040F210016248FFF767FEBBE038
:100E5000012905D140F204015F48FFF797FE04E045
:100E600040F204015C48FFF759FEADE0012905D1CD
:100E700042F200015948FFF789FE04E042F2000106
:100E80005648FFF74BFE9FE0012905D140F2004193
:100E90005148FFF77BFE04E040F200414E48FFF767
:100EA0003DFE91E0012905D140F600014A48FFF7D7
:100EB0006DFE04E040F600014748FFF72FFE83E097
:100EC000012905D141F200014348FFF75FFE04E02C
:100ED00041F200014048FFF721FE75E0012905D1EC
:100EE00040F201013B48FFF751FE04E040F20101EE
:100EF0003848FFF713FE67E0012905D140F20041B1
:100F00003648FFF743FE04E040F200413348FFF764
:100F100005FE59E0012905D140F200212F48FFF7D5
:100F200035FE04E040F200212C48FFF7F7FD4BE0CE
:100F3000012905D140F200112848FFF727FE04E0FF
:100F400040F200112548FFF7E9FD3DE0012905D1F8
:100F500040F240012248FFF719FE04E040F2400150
:100F60001F48FFF7DBFD2FE0012905D140F280018A
:100F70001B48FFF70BFE04E040F280011848FFF722
:100F8000CDFD21E0012020E000283FF453AF0128EF
:100F90003FF45EAF02283FF469AF03283FF474AF1B
:100FA00004283FF47FAF05283FF48AAF06283FF4BA
:100FB00095AF0728A0D00828ACD00928B8D00A28B7
:100FC000C4D00B28D0D0DDE70020DDF800E001B070
:100FD000704700BF000801400010014000140140AC
:100FE000000C014081B0CDF800E0A9E0012905D155
:100FF00040F220016548FFF7C9FD04E040F22001FE
:101000006248FFF78BFDBBE0012905D140F20801E2
:101010005F48FFF7BBFD04E040F208015C48FFF7C2
:101020007DFDADE0012905D144F200015948FFF7EB
:10103000ADFD04E044F200015648FFF76FFD9FE06C
:10104000012905D140F200415148FFF79FFD04E01E
:1010500040F200414E48FFF761FD91E0012905D1C2
:1010600040F600014A48FFF791FD04E040F6000118
:101070004748FFF753FD83E0012905D141F2000104
:101080004348FFF783FD04E041F200014048FFF7C9
:1010900045FD75E0012905D141F200013D48FFF70A
:1010A00075FD04E041F200013A48FFF737FD67E0C3
:1010B000012905D140F600013648FFF767FD04E03D
:1010C00040F600013348FFF729FD59E0012905D119
:1010D00040F240012F48FFF759FD04E040F2400183
:1010E0002C48FFF71BFD4BE0012905D140F2200100
:1010F0002848FFF74BFD04E040F220012548FFF7A8
:101100000DFD3DE0012905D140F240012248FFF7E5
:101110003DFD04E040F240011F48FFF7FFFC2FE0D7
:10112000012905D140F280011B48FFF72FFD04E0A3
:1011300040F280011848FFF7F1FC21E0012020E097
:1011400000283FF453AF01283FF45EAF02283FF47C
:1011500069AF03283FF474AF04283FF47FAF05283C
:101160003FF48AAF06283FF495AF0728A0D008289F
:10117000ACD00928B8D00A28C4D00B28D0D0DDE7DD
:101180000020DDF800E001B0704700BF000801401A
:101190000010014000140140000C014081B0CDF866
:1011A00000E0094902B440F2000340F2000240F2BC
:1011B0000001FFF7DFFB01B0044A05490A60002087
:1011C000DDF800E001B07047981900009D090000AB
:1011D000C000002081B0CDF800E0094902B440F21F
:1011E000000340F2000240F20001FFF7AFFB01B044
:1011F000044A05490A600020DDF800E001B07047AC
:10120000DC1A0000B9090000C000002081B0CDF850
:1012100000E0094902B440F2000340F2000240F24B
:101220000001FFF767FC01B0044A05490A6000208D
:10123000DDF800E001B07047041A0000BD0A0000AC
:10124000C000002081B0CDF800E0094902B440F2AE
:10125000000340F2000240F20001FFF777FB01B00B
:10126000044A05490A600020DDF800E001B070473B
:10127000DC1A0000B9090000C00000200149086024
:10128000704700BFA081224201490860704700BF3B
:10129000B081224201490860704700BFB0812242FC
:1012A00001490860704700BFAC0122420149086053
:1012B000704700BFB001224201490860704700BF7B
:1012C0009881214201490860704700BF9C812142FA
:1012D00001490860704700BF9881224201490860B7
:1012E000704700BF9481224201490860704700BFE7
:1012F000A801224201490860704700BF8C012242C8
:1013000001490860704700BF94012142014908600B
:10131000704700BF9C81214201490860704700BFAF
:10132000B881224201490860704700BF988121427C
:1013300082B0CDF800E00120FFF740FC81B2ADF8AB
:1013400004100220FFF73AFCBDF8041082B200231B
:10135000182903D2182A01D201201AE0182905D22F
:1013600040F6E870824201D2022012E0302905D90D
:1013700040F61800824201D903200AE0302905D93D
:1013800040F6E870824203D2042000E0D8B200E0C8
:10139000D8B2DDF800E002B07047FFFF81B0CDF8B1
:1013A00000E08B4609E05846FFF71CFD0AE058466E
:1013B000FFF72AFD06E0012004E00028F3D0012811
:1013C000F5D0F8E7DDF800E001B0704783B0CDF864
:1013D00000E0024610460D228DF808200A228DF802
:1013E00009201FE0FFF72AFC23E002782AB10190D0
:1013F000FFF724FC0198401CF7E71AE002782AB1B5
:101400000190FFF71BFC0198401CF7E702AA104669
:10141000FFF714FC0DF109021046FFF70FFC08E07E
:10142000062007E00029DDD00129DED00229E5D021
:10143000F6E70020DDF800E003B0704781B0CDF89A
:1014400000E05FFA81F95FFA82FA0FE05FFA8AF151
:101450005FFA89F0FFF7EAFC0DE05FFA8AF15FFAC4
:1014600089F0FFF7BFFD06E0012004E00028EDD081
:101470000128F2D0F8E7DDF800E001B07047FFFF87
:1014800044F67F77C0F212077F1EFDD100BF00BF78
:1014900000BF00BF00BF704781B0CDF800E0034639
:1014A0000846FFF75DFC1846FFF7D8FB0020034C09
:1014B0002468A047DDF800E001B07047E400002098
:1014C00081B0CDF800E011E00846FFF79FFE16E07E
:1014D0000846FFF7B7FE12E00846FFF75FFE0EE092
:1014E0000846FFF777FE0AE0012008E00028EBD06D
:1014F0000128EDD02028EFD03028F1D0F4E7DDF836
:1015000000E001B07047FFFF81B0CDF800E0064C6D
:101510002468A047002840F2000000D10120DDF837
:1015200000E001B0704700BFE000002081B04FF044
:1015300000094FF0000CBDEB0A0F04DCBDEB0B0FF4
:1015400001DBD446EA464BF8049BBBEB0A0FFAD109
:10155000BCEB0A0F05DDE246D9F800B00BF1040B35
:10156000F1E701B07047FFFF81B01548006840F017
:1015700001011348016013491348016010480168D4
:10158000124801400E4801600D4801686FF4802048
:1015900001400B4801600C4801686FF4FE000140F7
:1015A00009480160064801686FF0A05001400448F6
:1015B00001604FF000010648016001B0704700BFB4
:1015C000001002400000FFF004100240FFFFF6FE92
:1015D0002C10024081B01CF8019B0BF8019BBBEB67
:1015E0000A0FF8D101B0704781B0CDF800E0FFF7E5
:1015F0009FFE2D490870FFF787FF2C4908700128CE
:101600000DD12B48007850B9012129480170294893
:101610000221FFF7DBFE28480221FFF7D7FE23480F
:10162000007830B922480078012802D100212048F2
:1016300001701D4801782148007888422FD01A484F
:101640000078002803D11E480221FFF7BFFE16488C
:101650000078012803D11B480221FFF7B7FE12488A
:101660000078022803D118480221FFF7AFFE0E4888
:101670000078032803D115480221FFF7A7FE0A4886
:101680000078042803D112480221FFF79FFE114879
:101690000221FFF79BFE0448017808480170DDF83D
:1016A00000E001B0704700BFBB000020BC0000207C
:1016B000000000200100002015000020290000206B
:1016C0002A000020370000204300002050000020A6
:1016D0005E0000206B00002081B0CDF800E00A49D8
:1016E0000A48FFF7D9FE0A480221FFF76FFE0948B2
:1016F0000221FFF76BFE08480221FFF767FEDDF8C5
:1017000000E001B0704700BFC01B0000481B000094
:101710007F00002093000020A700002081B0CDF8BA
:1017200000E0012207210020FFF788FE00220221AD
:101730000020FFF783FE084801460020FFF72EFE39
:1017400042F280512020FFF7BBFEFFF799FEDDF843
:1017500000E001B0704700BFB81B000081B0024933
:101760000248016001B0704740190100C400002028
:1017700081B0FEE701B0704700F00EF800F066FAA5
:10178000FFF7ECFF00F022FAFFF7C8FFFFF7A4FF16
:10179000FFF72AFFFCE7FEE781B0CDF800E0464AFC
:1017A000464B474C47494BF68030814206D9464864
:1017B000006840F002014448016011E045F6C05065
:1017C000814206D94048006840F001013E4801606E
:1017D00006E03D4801686FF0070001403A480160AB
:1017E000FFF7C2FE3948036039480460394802EA0D
:1017F00000013948016002F0010040B11946364845
:10180000006800F00200002800D1F8E700E0194667
:1018100002F4803040B10B462F48006800F40030DD
:10182000002800D1F8E700E00B4602F0805068B1D4
:101830002948006840F08051274801602648006828
:1018400000F00050002800D1F8E7FFE702F08060C8
:1018500078B12148006840F080611F48016011465E
:101860001A461D48006800F00060002800D1F8E723
:1018700001E011461A4601F0807070B11648006808
:1018800040F080711448016011461348006800F070
:10189000007000B9F9E70A46FFE70C48006800F05D
:1018A0000C01900000F00C00814200D0F5E7DDF85B
:1018B00000E001B0704700BF8100010502841D00F7
:1018C00044060100401901000020024004100240BB
:1018D0002C100240FFFF0F00001002400020427554
:1018E00074746F6E20697320707265737365642001
:1018F000002D2D2D2D2D2D2D2D2D2D2D2D2D2D2D45
:101900002D2D2D2D00FF202020202020205354415C
:101910005254002020202020202020544F5000200E
:1019200020202020202052494748540020202020F9
:10193000202020424F54544F4D00202020202020B2
:1019400020204C454654002D2D2D2D2D2D2D2D2D97
:101950002D2D2D2D2D2D2D2D2D2D002D2D2D2D2DE4
:101960002D2D2D2D2D2D2D2D2D2D2D2D2D2D0020E1
:101970005468756D62737469636B2020436C69638E
:101980006B20002D2D2D2D2D2D2D2D2D2D2D2D2D83
:101990002D2D2D2D2D2D00FF090000000A00000027
:1019A000FFFFFFFF0000000000000000000000003B
:1019B0000000000000000000000000000000000027
:1019C00000000000000000000000000018080000F7
:1019D00018000000000000000000000000000000EF
:1019E00000000000000000000000000000000000F7
:1019F00000000000000000000000000000000000E7
:101A0000040000003800000039000000FFFFFFFF65
:101A100000000000000000000000000000000000C6
:101A200000000000000000000000000000000000B6
:101A3000000000000000000018080000180000006E
:101A40000000000000000000000000000000000096
:101A50000000000000000000000000000000000086
:101A6000000000000000000000000000300014082A
:101A70002A0000002B0000002C000000FFFFFFFFE9
:101A80000000000000000000000000000000000056
:101A90000000000000000000000000000000000046
:101AA00000000000180800001808000018080000D6
:101AB0000000000000000000000000000000000026
:101AC0000000000000000000000000000000000016
:101AD0000000000000000000001120083500000098
:101AE00036000000FFFFFFFF0000000000000000C4
:101AF00000000000000000000000000000000000E6
:101B000000000000000000000000000000000000D5
:101B1000180800001800000000000000000000008D
:101B200000000000000000000000000000000000B5
:101B300000000000000000000000000000000000A5
:101B40000000000008000008D90D0000910D000001
:101B50009D0D0000790D0000850D0000C10D0000F5
:101B6000CD0D0000A90D0000B50D00007D12000094
:101B7000251300000D130000310D0000550D00006D
:101B8000490D00003D0D0000010D0000C50C0000D6
:101B9000B90C0000AD0C0000D10C0000F50C0000E9
:101BA000E90C0000DD0C000000000000010203044D
:101BB00001020304060708090700000004030000EF
:101BC000D5090000450300000204060800B5DFF84F
:101BD00014B0DFF814A0DFF814C0FFF7FBFC00BD61
:101BE000704700BF00000020BB000020DC18000090
:101BF000FFFFFFFFFFFFFFFFFFFFFFFFFFFFFFFFF5
:101C0000FFFFFFFFFFFFFFFFFFFFFFFFFFFFFFFFE4
:101C1000FFFFFFFFFFFFFFFFFFFFFFFFFFFFFFFFD4
:101C2000FFFFFFFFFFFFFFFFFFFFFFFFFFFFFFFFC4
:101C3000FFFFFFFFFFFFFFFFFFFFFFFFFFFFFFFFB4
:101C4000FFFFFFFFFFFFFFFFFFFFFFFF00B5DFF814
:101C500010B0DFF810A0FFF769FC00BD704700BFAF
:101C600000000020F0000020FFFFFFFFFFFFFFFF4C
:00000001FF
