:1000000019EF0AF00000000000EF00F0000000000F
:0A0010000000000000000000F3D71C
:0E001C0001011BB102D08B9801D08B8812001D
:0E002A0001011BB102D08B9601D08B86120013
:0E00380001011BB102D0899401D0898412000D
:0E00460001011BB102D08D9401D08D841200F7
:0E00540001011BB102D08D9601D08D861200E5
:0E00620001011BB102D08B9401D08B841200DF
:0E00700001011BB102D08B9A01D08B8A1200C5
:0E007E0001011BB102D08A9201D08A821200C9
:0E008C0001011BB102D08B9C01D08B8C1200A5
:0E009A0001011BB102D08B9E01D08B8E120093
:0E00A80001011BB102D08B9601D08B86120095
:0E00B60001011BB102D08B9601D08B86120087
:0E00C40001011BB102D08F9201D08F82120079
:0E00D20001011BB102D08B9801D08B88120067
:1000E0001BC16AFF016A0150000A05E1000E68B0F9
:0C00F000010E016EF8D76ACF00F012007C
:1000FC001BC1C9FF016A0150000A05E1000EC7B01F
:0C010C00010E016EF8D7C9CF00F0120000
:0E01180001011BB102D08B9A01D08B8A12001C
:0E01260001011BB102D08B9801D08B88120012
:0E01340001011BB102D08F9001D08F8012000C
:0E01420001011BB102D08F9401D08F841200F6
:0E01500001011BB102D08A9401D08A841200F2
:0E015E0001011BB102D08D9001D08D801200E6
:0E016C0001011BB102D08B9001D08B801200DC
:0E017A0001011BB102D08B9601D08B861200C2
:0E01880001011BB102D08B9A01D08B8A1200AC
:0E01960001011BB102D08B9801D08B881200A2
:1001A4001BC16AFF016A0150000A05E1000E68B034
:0C01B400010E016EF8D76ACF01F01200B6
:1001C0001BC1C9FF016A0150000A05E1000EC7B05A
:0C01D000010E016EF8D7C9CF01F012003B
:0E01DC00ACB202D00000FCD71BC1ADFF120078
:0E01EA0001011BB102D0899001D08980120062
:1001F8000F0121B302D00000FBD71BC11CFF120066
:0E02080001011BB102D08B9201D08B8212003B
:0E02160001011BB102D0899801D08988120025
:0E02240001011BB102D0899201D08982120023
:0E02320001011BB102D08D9201D08D8212000D
:0E02400001011BB102D08B9801D08B881200F7
:0E024E0001011BB102D08B9601D08B861200ED
:0E025C0001011BB102D08B9E01D08B8E1200CF
:0E026A0001011BB102D08A9001D08A801200DF
:0E02780001011BB102D08B9C01D08B8C1200B7
:0E02860001011BB102D08B9801D08B881200B1
:0E02940001011BB102D08B9601D08B861200A7
:1002A200F250026EF29E0500FF6A0150FE6E00508F
:0802B200FD6E02BEF28E120087
:0A02BA00000E82B6010E006E120065
:0A02C400000E84B0010E006E12005F
:0A02CE00000E82B0010E006E120057
:0A02D800000E82B8010E006E120045
:0A02E200000E81B0010E006E120044
:0A02EC00000E82B2010E006E120037
:0A02F600000E82BA010E006E120025
:0A030000000E80B0010E006E120026
:10030A0015C119F116C11AF117C100F018C101F08F
:10031A00010E0101175F000E185B0050011014E076
:10032A00ECC0E1FFEDC0E2FFE66AEAC000F0EBC014
:10033A0001F0B2DF19C1E1FF1AC1E2FF00C0E6FF16
:0A034A000101194B1A2BE0D7120035
:0A035400000E9EBA010E006E1200AA
:10035E00AECF01F0ABA202D0AB98AB8801C000F0DB
:02036E0012007B
:0A037000000EACB2010E006E120088
:0C037A00000E0F0121B3010E006E1200F6
:0A038600000EA4BA010E006E120072
:100390001DCF01F00F0122A302D02299228901C0B2
:0403A00000F0120057
:0A03A400000E82BE010E006E120072
:0A03AE00000E82BA010E006E12006C
:0A03B800000E86B0010E006E120068
:0A03C200000E82B8010E006E12005A
:0A03CC00000E81B2010E006E120057
:0A03D600000E80B4010E006E12004C
:0A03E000000E84B4010E006E12003E
:0A03EA00000E82B6010E006E120034
:0A03F400000E86B4010E006E120028
:0A03FE00000E82B6010E006E120020
:10040800DC0E0001F66F010EF76F1B0EF86F010E80
:10041800F96F5E0E0101056F030E066F000E076F80
:10042800000E086F540E016F030E026F000E036F6B
:10043800000E046F700E0001E26F030EE36F000EF2
:10044800E46F000EE56FAC8A900EAB6E948E949CB0
:0C0458009EAA03D0AECF00F0FBD712002C
:10046400FC0E0001DE6F000EDF6F1B0EE06F010E4D
:10047400E16FC00EFA6F010EFB6F1B0EFC6F010ED5
:10048400FD6F949A01011551040A02E1948601D08A
:1004940094969488C66AC79CC79E1551C612175174
:1004A400C6121651C712175305E01851000AD8B4E2
:0E04B400C78C03D01853D8A4C78CC68A120078
:1004C20015C119F116C11AF117C100F018C101F0D6
:1004D200010E0101175F000E185B0050011013E0BE
:1004E200E8C0E1FFE9C0E2FF19C1E9FF1AC1EAFF72
:1004F200EECFE6FFE6C000F0E7C001F0D1DE010179
:08050200194B1A2BE1D712007E
:0A050A00000E86B2010E006E120012
:10051400F80E0001F66F010EF76F1B0EF86F010E57
:10052400F96F900E0101056F030E066F000E076F41
:10053400000E086F860E016F030E026F000E036F2C
:10054400000E046F7A0E0001E26F030EE36F000EDB
:10055400E46F000EE56F0F01218B900E226F9884DB
:0E0564009892A4AA03D01DCF00F0FBD712007E
:0A057200000E82B8010E006E1200A8
:0A057C00000E82B8010E006E12009E
:0A058600000E80B8010E006E120096
:0A059000000E84B2010E006E12008E
:0A059A00000E82B6010E006E120082
:0A05A400000E80B2010E006E12007E
:0A05AE00000E82BC010E006E120068
:0A05B800000E82B6010E006E120064
:0A05C200000E82B8010E006E120058
:0A05CC00000E81B4010E006E120053
:0A05D600000E82BC010E006E120040
:0A05E000000E84B6010E006E12003A
:0A05EA00000E82B6010E006E120032
:0A05F400000E82BE010E006E120020
:0A05FE00000E82BA010E006E12001A
:0A060800000E82B4010E006E120015
:0A061200000E82B8010E006E120007
:10061C0038D00F0120870D0E1F6F040E1E6F218521
:10062C0073DF7ED00F012087060E1F6F820E1E6FA8
:10063C0021856ADF75D00F012087030E1F6F400ED6
:10064C001E6F218561DF6CD00F012087010E1F6F9B
:10065C00A00E1E6F218558DF63D00F012087010E7D
:10066C001F6F150E1E6F21854FDF5AD00F0120878B
:10067C001F6B8A0E1E6F218547DF52D0060E006E4F
:10068C0059D0000E006E0101121908E10050111929
:10069C0005E1120E101902E10F51C00ABAE0000E6A
:1006AC00006E121908E10050111905E1250E101900
:1006BC0002E10F51800AB6E0000E006E121908E13B
:1006CC000050111905E14B0E101902E10F51000AEF
:1006DC00B2E0000E006E121908E10050111905E18C
:1006EC00960E101902E10F51000AAEE0000E006EDA
:1006FC00121908E10050111905E1E10E101902E17F
:10070C000F51000AAAE01251000A08E11151010A26
:10071C0005E11051C20A02E10F51000AA7E0AED761
:10072C00F80E0001D86F010ED96F1B0EDA6F010E97
:06073C00DB6F006A1200F1
:100742000FC1F6FF10C1F7FF11C1F8FF0900F5CF85
:1007520015F1040E01010F25F66E000E1021F76E41
:10076200000E1121F86E0900F5CF16F1080E0F25C3
:10077200F66E000E1021F76E000E1121F86E0900C0
:10078200F5CF17F10C0E0F25F66E000E1021F76E45
:10079200000E1121F86E0900F5CF18F162DE000E8D
:0407A200006E1200D3
:1007A60021D0CF0EAF6EAC942CDE6BD0670EAF6E41
:1007B600AC9427DE66D0CF0EAF6EAC8422DE61D05D
:1007C600670EAF6EAC841DDE5CD0440EAF6EAC849B
:1007D60018DE57D0220EAF6EAC8413DE52D0060E52
:1007E600006E59D0000E006E0101121908E100508A
:1007F600111905E1120E101902E10F51C00AD1E0DC
:10080600000E006E121908E10050111905E1250EBF
:10081600101902E10F51800AC9E0000E006E12198C
:1008260008E10050111905E14B0E101902E10F51B4
:10083600000AC1E0000E006E121908E100501119FD
:1008460005E1960E101902E10F51000AB9E0000EFB
:10085600006E121908E10050111905E1E10E101998
:1008660002E10F51000AB1E01251000A08E11151EC
:10087600010A05E11051C20A02E10F51000AAAE07D
:10088600AED7DC0E0001D86F010ED96F1B0EDA6FE2
:08089600010EDB6F006A120085
:10089E000FC1F6FF10C1F7FF11C1F8FF0900F5CF28
:1008AE0015F1040E01010F25F66E000E1021F76EE4
:1008BE00000E1121F86E0900F5CF16F1080E0F2566
:1008CE00F66E000E1021F76E000E1121F86E090063
:1008DE00F5CF17F10C0E0F25F66E000E1021F76EE8
:1008EE00000E1121F86E0900F5CF18F1B4DD000EDF
:0408FE00006E120076
:100902000FC1F6FF10C1F7FF11C1F8FF0900F5CFC3
:1009120015F1040E01010F25F66E000E1021F76E7F
:10092200000E1121F86E0900F5CF16F1080E0F2501
:10093200F66E000E1021F76E000E1121F86E0900FE
:10094200F5CF17F10C0E0F25F66E000E1021F76E83
:10095200000E1121F86E0900F5CF18F182DD000EAC
:04096200006E120011
:1009660021D0CF0EAF6EAC944CDD6BD0670EAF6E60
:10097600AC9447DD66D0CF0EAF6EAC8442DD61D05D
:10098600670EAF6EAC843DDD5CD0440EAF6EAC84BA
:1009960038DD57D0220EAF6EAC8433DD52D0060E52
:1009A600006E59D0000E006E0101121908E10050C8
:1009B600111905E1120E101902E10F51C00AD1E01A
:1009C600000E006E121908E10050111905E1250EFE
:1009D600101902E10F51800AC9E0000E006E1219CB
:1009E60008E10050111905E14B0E101902E10F51F3
:1009F600000AC1E0000E006E121908E1005011193C
:100A060005E1960E101902E10F51000AB9E0000E39
:100A1600006E121908E10050111905E1E10E1019D6
:100A260002E10F51000AB1E01251000A08E111512A
:100A3600010A05E11051C20A02E10F51000AAAE0BB
:100A4600AED7DC0E0001D86F010ED96F1B0EDA6F20
:080A5600010EDB6F006A1200C3
:100A5E0021D0CF0EAF6EAC94D0DC6BD0670EAF6EE4
:100A6E00AC94CBDC66D0CF0EAF6EAC84C6DC61D05E
:100A7E00670EAF6EAC84C1DC5CD0440EAF6EAC843E
:100A8E00BCDC57D0220EAF6EAC84B7DC52D0060E53
:100A9E00006E59D0000E006E0101121908E10050CF
:100AAE00111905E1120E101902E10F51C00AD1E021
:100ABE00000E006E121908E10050111905E1250E05
:100ACE00101902E10F51800AC9E0000E006E1219D2
:100ADE0008E10050111905E14B0E101902E10F51FA
:100AEE00000AC1E0000E006E121908E10050111943
:100AFE0005E1960E101902E10F51000AB9E0000E41
:100B0E00006E121908E10050111905E1E10E1019DD
:100B1E0002E10F51000AB1E01251000A08E1115131
:100B2E00010A05E11051C20A02E10F51000AAAE0C2
:100B3E00AED7DC0E0001D86F010ED96F1B0EDA6F27
:080B4E00010EDB6F006A1200CA
:100B5600DAC0E1FFDBC0E2FF0FC1E9FF10C1EAFF27
:100B6600EECFE6FFD8C000F0D9C001F051EC01F09D
:040B7600006A1200FF
:100B7A0059D0010110B102D0929201D092820F0194
:100B8A00259376D0010110B102D0929801D09288B3
:100B9A006FD0010110B102D0969201D0968268D02E
:100BAA00010110B102D0949601D0948661D001015E
:100BBA0010B102D0949801D094885AD0010110B192
:100BCA0002D0949A01D0948A53D0010110B102D074
:100BDA00949401D094844CD0010110B102D0939224
:100BEA0001D0938245D0010110B102D0949E01D068
:100BFA00948E3ED0010110B102D0949C01D0948C05
:100C0A0037D0010110B102D0949601D0948630D029
:100C1A00010110B102D0949801D0948829D0010E14
:100C2A00006E28D001010F51000AA3E00F51010AFA
:100C3A00A9E00F51020AADE00F51030AB1E00F51CA
:100C4A00040AB5E00F51050AB9E00F51060ABDE0E2
:100C5A000F51070AC1E00F51080AC5E00F51090AEE
:100C6A00C9E00F510A0ACDE00F510B0AD1E0D7D7DC
:060C7A00000E006E1200E6
:100C80000101136B146B040E0F11106FF4C0E1FF20
:100C9000F5C0E2FFE66AF2C000F0F3C001F051ECEB
:100CA00001F0100E0101156F010E166F010E176F86
:100CB000000E186F06DC110E156F010E166F020E76
:100CC000176F000E186F85EC01F0F4C0E1FFF5C05E
:100CD000E2FF010EE66EF2C000F0F3C001F051EC4D
:100CE00001F00F0E01011115136F146B000E141794
:100CF000000E146F13C101F0006A00C013F101C0AF
:100D000014F112510012000E011200C013F101C0C3
:040D100014F11200C8
:100D140059D0010110B102D0929001D092800F01FC
:100D2400259176D0010110B102D0949001D0948025
:100D34006FD0010110B102D0969001D0968068D096
:100D4400010110B102D0949601D0948661D00101C2
:100D540010B102D0949801D094885AD0010110B1F6
:100D640002D0949A01D0948A53D0010110B102D0D8
:100D7400949201D094824CD0010110B102D093908E
:100D840001D0938045D0010110B102D0949E01D0CE
:100D9400948E3ED0010110B102D0949C01D0948C69
:100DA40037D0010110B102D0949601D0948630D08E
:100DB400010110B102D0949801D0948829D0010E79
:100DC400006E28D001010F51000AA3E00F51010A5F
:100DD400A9E00F51020AADE00F51030AB1E00F512F
:100DE400040AB5E00F51050AB9E00F51060ABDE047
:100DF4000F51070AC1E00F51080AC5E00F51090A53
:100E0400C9E00F510A0ACDE00F510B0AD1E0D7D740
:060E1400000E006E12004A
:100E1A005DD0010110B102D0929401D092840F01E9
:100E2A0025957AD0010110B102D0969601D0968606
:100E3A0073D0010110B102D0969401D096846CD07F
:100E4A00010110B102D0949601D0948665D00101B7
:100E5A0010B102D0949801D094885ED0010110B1EB
:100E6A0002D0949A01D0948A57D0010110B102D0CD
:100E7A00989001D0988050D0010110B102D093947B
:100E8A0001D0938449D0010110B102D0989401D0C5
:100E9A0098840F01239540D0010110B102D0989295
:100EAA0001D098820F01239337D0010110B102D0EB
:100EBA00949601D0948630D0010110B102D0949852
:100ECA0001D0948829D0010E006E28D001010F515B
:100EDA00000A9FE00F51010AA5E00F51020AA9E09A
:100EEA000F51030AADE00F51040AB1E00F51050A90
:100EFA00B5E00F51060AB9E00F51070ABDE00F51DC
:100F0A00080AC1E00F51090AC7E00F510A0ACDE0E9
:0E0F1A000F510B0AD1E0D7D7000E006E120067
:100F28000FC1F6FF10C1F7FF11C1F8FF0900F5CF97
:100F3800E6F00900F5CFE7F00900F5CFE8F0090081
:100F4800F5CFE9F0040E01010F25F66E000E102111
:100F5800F76E000E1121F86E0900F5CFEAF00900CE
:100F6800F5CFEBF00900F5CFECF00900F5CFEDF087
:020F7800120065
:100F7A00300E01010F25006E000E1021016E000EC9
:100F8A001121026E1C0E0024F66E000E0120F76E6F
:100F9A00000E0220F86E0900F5CFEEF00900F5CF39
:100FAA00EFF00900F5CFF0F00900F5CFF1F0080EE7
:100FBA000F25F66E000E1021F76E000E1121F86E45
:100FCA000900F5CFF2F00900F5CFF3F00900F5CFEB
:0A0FDA00F4F00900F5CFF5F0120065
:100FE4001CD00AC10FF10BC110F10CC111F1A1EC1D
:100FF40003F01ED00AC10FF10BC110F10CC111F1A5
:101004007EDC16D00AC10FF10BC110F10CC111F135
:1010140044DC0ED0010E006E0BD001010951000A10
:10102400E0E00951010AE6E00951020AEBE0F2D7D7
:021034001200A8
:1010360015D00AC10FF10BC110F169DE1AD00AC131
:101046000FF10BC110F196DD14D00AC10FF10BC1DF
:1010560010F1E0DE0ED0010E006E0BD00101095139
:10106600000AE7E00951010AEAE00951020AEDE047
:04107600F2D712009B
:10107A00EEC000F0EFC001F051EC01F00052010E99
:0C108A00D8A4000E016E01C000F012009E
:101096000CC10FF10DC110F10EC111F142DF09C1F2
:1010A6000FF10AC110F10BC111F164DFF4C0E1FFC9
:1010B600F5C0E2FFE66AF2C000F0F3C001F051ECC1
:0410C60001F0120023
:1010CA0009C1FEF00AC1FFF00D0E0101006F0A0E00
:1010DA000C6F35D0FEC00FF1FFC010F137DD3AD0EA
:1010EA00FEC0E9FFFFC0EAFFEE5209E0FEC00FF1C1
:1010FA00FFC010F12BDD0001FE4BFF2BF1D72AD0E8
:10110A00FEC0E9FFFFC0EAFFEE5209E0FEC00FF1A0
:10111A00FFC010F11BDD0001FE4BFF2BF1D7000EC3
:10112A0001010F6F010E106F11DD0C0E01010F6F1F
:10113A00010E106F0BDD0ED0060E006E0CD00101F1
:10114A000B51000AC7E00B51010ACAE00B51020A0F
:08115A00D7E0F2D7006A120091
:10116200010E01010F6F8BDD00C0FEF001C0FFF028
:10117200020E0F6F84DD00C009F101C00AF1006B9D
:10118200000E0001FF5D02E1180EFE5D0AE2000E94
:1011920001010A5D02E1180E095D03E2010E006F12
:1011A20036D0000E0001FF5D02E1180EFE5D0AE27C
:1011B2000F0E01010A5D02E1E80E095D03E2020E73
:1011C200006F25D0000E006E0001FF51005C02E1AD
:1011D200FE5130080AE201010A51080802E10951F0
:1011E200180803E2030E006F12D0000E006E000119
:1011F200FF51005C02E1FE51300809E20F0E0101CD
:101202000A5D02E1E80E095D02E2040E006F00C110
:0412120000F01200D6
:10121600090E0B6E1E0E0C6EE40E0D6E0D2EFED715
:0C1226000C2EFCD70B2EFAD70000120093
:101232002ED00AC10FF10BC110F10CC111F10DC179
:1012420012F10CDC32D00AC10FF10BC110F10CC14A
:1012520011F10DC112F1B3EC04F027D00AC10FF164
:101262000BC110F10CC111F10DC112F10EEC03F022
:101272001CD00AC10FF10BC110F10CC111F10DC14B
:1012820012F1D3EC03F011D0010E006E0ED0010169
:101292000951000ACEE00951010AD5E00951020ABA
:0C12A200DDE00951100AE5E0EFD7120072
:1012AE000101096B070E0A6F010E0B6FBDDE010106
:1012BE00096B020E0A6F0B6BB7DE0101096B630E31
:1012CE000A6F150E0B6F000E0C6F85DE100E096F78
:1012DE00800E0A6F250E0B6F000E0C6F0D6FA2DFC6
:0412EE0093DF120078
:1012F2000900F5CFE6FF0006FBE10106F9E1120065
:10130200030E0101096F150E0A6F000E0B6F730EAB
:101312000C6F150E0D6F000E0E6FBCDEA20E0101DA
:10132200096F000E0A6F020E0B6FCEDE290E01014D
:10133200096F000E0A6F020E0B6FC6DE150E010159
:0E134200096F000E0A6F020E0B6FBEDE120066
:1013500008DF00C0DCF091DE00C0DDF00050010AC3
:1013600016E10001A151000A12E1010EA16F780EF1
:101370000101096F000E0A6F020E0B6FA6DE8C0EC4
:101380000101096F000E0A6F020E0B6F9EDE000155
:10139000DD51000A05E1A151010A02E1000EA16F31
:1013A000A051DC1945E0DC51000A08E13D0E0101C5
:1013B000096F000E0A6F020E0B6F87DE0001DC5111
:1013C000010A08E16B0E0101096F000E0A6F020E9F
:1013D0000B6F7BDE0001DC51020A08E15C0E0101AB
:1013E000096F000E0A6F020E0B6F6FDE0001DC51F9
:1013F000030A08E14C0E0101096F000E0A6F020E8C
:101400000B6F63DE0001DC51040A08E1CA0E010122
:10141000096F000E0A6F020E0B6F57DEB60E010148
:10142000096F000E0A6F020E0B6F4FDEDCC0A0F0DA
:021430001200A8
:0E143200BEEC0AF03BDF64DF8ADFFED7FFD797
:10157C0010EE15F0C30E006E010E016E400EF66EED
:0E158C00140EF76E000EF86E79EC09F01200E6
:101440002D2D2D2D2D2D2D2D2D2D2D2D2D2D2D2DCC
:041450002D2D2D0011
:10145400205468756D62737469636B2020436C69F2
:04146400636B200096
:0F146800202020202053205420412052205400C7
:101477002020202042204F20542054204F204D0070
:0F148700202020202052204920472048205400B8
:0D1496002020202020202054204F20500036
:1014A30020427574746F6E20697320707265737354
:0414B300656420004C
:1014B7002D2D2D2D2D2D2D2D2D2D2D2D2D2D2D2D55
:0414C7002D2D2D009A
:0114CB00FF21
:0114CC00001F
:1014CD002D2D2D2D2D2D2D2D2D2D2D2D2D2D2D2D3F
:0414DD002D2D2D0084
:1014E1002D2D2D2D2D2D2D2D2D2D2D2D2D2D2D2D2B
:0414F1002D2D2D0070
:0E14F5002020202020204C204520462054009E
:10150300EA011B016C011B015E011B017A011B0136
:1015130096011B0188011B0108021B016A021B01C2
:101523005C021B0178021B0194021B0186021B0152
:1015330000030000CE020000C4020000BA02000053
:10154300D8020000F6020000EC020000E2020000F4
:10155300A4030000AE050000B8050000C2050000AA
:101563000200000000000000000000000100000075
:08157300C0011B01FC001B017B
:020000040030CA
:0E00000015137F7CF98B91FFFFC0FFE0FF40DE
:00000001FF
